{
  "contractName": "YKTS",
  "abi": [
    {
      "inputs": [],
      "stateMutability": "nonpayable",
      "type": "constructor"
    },
    {
      "anonymous": false,
      "inputs": [
        {
          "indexed": true,
          "internalType": "address",
          "name": "account",
          "type": "address"
        }
      ],
      "name": "BrokerApprove",
      "type": "event"
    },
    {
      "anonymous": false,
      "inputs": [
        {
          "indexed": true,
          "internalType": "address",
          "name": "account",
          "type": "address"
        }
      ],
      "name": "BrokerInvalid",
      "type": "event"
    },
    {
      "anonymous": false,
      "inputs": [
        {
          "indexed": true,
          "internalType": "address",
          "name": "account",
          "type": "address"
        }
      ],
      "name": "BrokerRequest",
      "type": "event"
    },
    {
      "anonymous": false,
      "inputs": [
        {
          "indexed": true,
          "internalType": "address",
          "name": "account",
          "type": "address"
        }
      ],
      "name": "EntityApprove",
      "type": "event"
    },
    {
      "anonymous": false,
      "inputs": [
        {
          "indexed": true,
          "internalType": "address",
          "name": "account",
          "type": "address"
        }
      ],
      "name": "EntityInvalid",
      "type": "event"
    },
    {
      "anonymous": false,
      "inputs": [
        {
          "indexed": true,
          "internalType": "address",
          "name": "account",
          "type": "address"
        }
      ],
      "name": "EntityRequest",
      "type": "event"
    },
    {
      "anonymous": false,
      "inputs": [
        {
          "indexed": true,
          "internalType": "address",
          "name": "account",
          "type": "address"
        }
      ],
      "name": "QueueOpFailed",
      "type": "event"
    },
    {
      "anonymous": false,
      "inputs": [
        {
          "indexed": true,
          "internalType": "address",
          "name": "account",
          "type": "address"
        },
        {
          "indexed": true,
          "internalType": "bytes32",
          "name": "hash",
          "type": "bytes32"
        },
        {
          "indexed": true,
          "internalType": "bytes",
          "name": "signature",
          "type": "bytes"
        }
      ],
      "name": "RecoverFailed",
      "type": "event"
    },
    {
      "anonymous": false,
      "inputs": [
        {
          "indexed": true,
          "internalType": "bytes32",
          "name": "role",
          "type": "bytes32"
        },
        {
          "indexed": true,
          "internalType": "bytes32",
          "name": "previousAdminRole",
          "type": "bytes32"
        },
        {
          "indexed": true,
          "internalType": "bytes32",
          "name": "newAdminRole",
          "type": "bytes32"
        }
      ],
      "name": "RoleAdminChanged",
      "type": "event"
    },
    {
      "anonymous": false,
      "inputs": [
        {
          "indexed": true,
          "internalType": "bytes32",
          "name": "role",
          "type": "bytes32"
        },
        {
          "indexed": true,
          "internalType": "address",
          "name": "account",
          "type": "address"
        },
        {
          "indexed": true,
          "internalType": "address",
          "name": "sender",
          "type": "address"
        }
      ],
      "name": "RoleGranted",
      "type": "event"
    },
    {
      "anonymous": false,
      "inputs": [
        {
          "indexed": true,
          "internalType": "bytes32",
          "name": "role",
          "type": "bytes32"
        },
        {
          "indexed": true,
          "internalType": "address",
          "name": "account",
          "type": "address"
        },
        {
          "indexed": true,
          "internalType": "address",
          "name": "sender",
          "type": "address"
        }
      ],
      "name": "RoleRevoked",
      "type": "event"
    },
    {
      "inputs": [],
      "name": "DEFAULT_ADMIN_ROLE",
      "outputs": [
        {
          "internalType": "bytes32",
          "name": "",
          "type": "bytes32"
        }
      ],
      "stateMutability": "view",
      "type": "function",
      "constant": true
    },
    {
      "inputs": [
        {
          "internalType": "bytes32",
          "name": "role",
          "type": "bytes32"
        }
      ],
      "name": "getRoleAdmin",
      "outputs": [
        {
          "internalType": "bytes32",
          "name": "",
          "type": "bytes32"
        }
      ],
      "stateMutability": "view",
      "type": "function",
      "constant": true
    },
    {
      "inputs": [
        {
          "internalType": "bytes32",
          "name": "role",
          "type": "bytes32"
        },
        {
          "internalType": "uint256",
          "name": "index",
          "type": "uint256"
        }
      ],
      "name": "getRoleMember",
      "outputs": [
        {
          "internalType": "address",
          "name": "",
          "type": "address"
        }
      ],
      "stateMutability": "view",
      "type": "function",
      "constant": true
    },
    {
      "inputs": [
        {
          "internalType": "bytes32",
          "name": "role",
          "type": "bytes32"
        }
      ],
      "name": "getRoleMemberCount",
      "outputs": [
        {
          "internalType": "uint256",
          "name": "",
          "type": "uint256"
        }
      ],
      "stateMutability": "view",
      "type": "function",
      "constant": true
    },
    {
      "inputs": [
        {
          "internalType": "bytes32",
          "name": "role",
          "type": "bytes32"
        },
        {
          "internalType": "address",
          "name": "account",
          "type": "address"
        }
      ],
      "name": "grantRole",
      "outputs": [],
      "stateMutability": "nonpayable",
      "type": "function"
    },
    {
      "inputs": [
        {
          "internalType": "bytes32",
          "name": "role",
          "type": "bytes32"
        },
        {
          "internalType": "address",
          "name": "account",
          "type": "address"
        }
      ],
      "name": "hasRole",
      "outputs": [
        {
          "internalType": "bool",
          "name": "",
          "type": "bool"
        }
      ],
      "stateMutability": "view",
      "type": "function",
      "constant": true
    },
    {
      "inputs": [
        {
          "internalType": "bytes32",
          "name": "role",
          "type": "bytes32"
        },
        {
          "internalType": "address",
          "name": "account",
          "type": "address"
        }
      ],
      "name": "renounceRole",
      "outputs": [],
      "stateMutability": "nonpayable",
      "type": "function"
    },
    {
      "inputs": [
        {
          "internalType": "bytes32",
          "name": "role",
          "type": "bytes32"
        },
        {
          "internalType": "address",
          "name": "account",
          "type": "address"
        }
      ],
      "name": "revokeRole",
      "outputs": [],
      "stateMutability": "nonpayable",
      "type": "function"
    },
    {
      "inputs": [
        {
          "internalType": "address",
          "name": "account",
          "type": "address"
        }
      ],
      "name": "isAdmin",
      "outputs": [
        {
          "internalType": "bool",
          "name": "",
          "type": "bool"
        }
      ],
      "stateMutability": "view",
      "type": "function",
      "constant": true
    },
    {
      "inputs": [
        {
          "internalType": "address",
          "name": "account",
          "type": "address"
        }
      ],
      "name": "isNotary",
      "outputs": [
        {
          "internalType": "bool",
          "name": "",
          "type": "bool"
        }
      ],
      "stateMutability": "view",
      "type": "function",
      "constant": true
    },
    {
      "inputs": [
        {
          "internalType": "address",
          "name": "account",
          "type": "address"
        }
      ],
      "name": "isEntity",
      "outputs": [
        {
          "internalType": "bool",
          "name": "",
          "type": "bool"
        }
      ],
      "stateMutability": "view",
      "type": "function",
      "constant": true
    },
    {
      "inputs": [
        {
          "internalType": "address",
          "name": "account",
          "type": "address"
        }
      ],
      "name": "isBroker",
      "outputs": [
        {
          "internalType": "bool",
          "name": "",
          "type": "bool"
        }
      ],
      "stateMutability": "view",
      "type": "function",
      "constant": true
    },
    {
      "inputs": [
        {
          "internalType": "address",
          "name": "account",
          "type": "address"
        }
      ],
      "name": "addAdmin",
      "outputs": [],
      "stateMutability": "nonpayable",
      "type": "function"
    },
    {
      "inputs": [],
      "name": "renounceAdmin",
      "outputs": [],
      "stateMutability": "nonpayable",
      "type": "function"
    },
    {
      "inputs": [],
      "name": "getAdminCount",
      "outputs": [
        {
          "internalType": "uint256",
          "name": "",
          "type": "uint256"
        }
      ],
      "stateMutability": "view",
      "type": "function",
      "constant": true
    },
    {
      "inputs": [
        {
          "internalType": "uint256",
          "name": "index",
          "type": "uint256"
        }
      ],
      "name": "getAdmin",
      "outputs": [
        {
          "internalType": "address",
          "name": "",
          "type": "address"
        }
      ],
      "stateMutability": "view",
      "type": "function",
      "constant": true
    },
    {
      "inputs": [
        {
          "internalType": "address",
          "name": "account",
          "type": "address"
        }
      ],
      "name": "addNotary",
      "outputs": [],
      "stateMutability": "nonpayable",
      "type": "function"
    },
    {
      "inputs": [
        {
          "internalType": "address",
          "name": "account",
          "type": "address"
        }
      ],
      "name": "removeNotary",
      "outputs": [],
      "stateMutability": "nonpayable",
      "type": "function"
    },
    {
      "inputs": [],
      "name": "renounceNotary",
      "outputs": [],
      "stateMutability": "nonpayable",
      "type": "function"
    },
    {
      "inputs": [],
      "name": "getNotaryCount",
      "outputs": [
        {
          "internalType": "uint256",
          "name": "",
          "type": "uint256"
        }
      ],
      "stateMutability": "view",
      "type": "function",
      "constant": true
    },
    {
      "inputs": [
        {
          "internalType": "uint256",
          "name": "index",
          "type": "uint256"
        }
      ],
      "name": "getNotary",
      "outputs": [
        {
          "internalType": "address",
          "name": "",
          "type": "address"
        }
      ],
      "stateMutability": "view",
      "type": "function",
      "constant": true
    },
    {
      "inputs": [
        {
          "internalType": "address",
          "name": "account",
          "type": "address"
        }
      ],
      "name": "addBroker",
      "outputs": [
        {
          "internalType": "bool",
          "name": "",
          "type": "bool"
        }
      ],
      "stateMutability": "nonpayable",
      "type": "function"
    },
    {
      "inputs": [
        {
          "internalType": "address",
          "name": "account",
          "type": "address"
        }
      ],
      "name": "removeBroker",
      "outputs": [],
      "stateMutability": "nonpayable",
      "type": "function"
    },
    {
      "inputs": [
        {
          "internalType": "address",
          "name": "account",
          "type": "address"
        }
      ],
      "name": "addEntity",
      "outputs": [
        {
          "internalType": "bool",
          "name": "",
          "type": "bool"
        }
      ],
      "stateMutability": "nonpayable",
      "type": "function"
    },
    {
      "inputs": [
        {
          "internalType": "address",
          "name": "account",
          "type": "address"
        }
      ],
      "name": "removeEntity",
      "outputs": [],
      "stateMutability": "nonpayable",
      "type": "function"
    },
    {
      "inputs": [
        {
          "internalType": "string",
          "name": "id",
          "type": "string"
        },
        {
          "internalType": "bytes32",
          "name": "PoC_hash",
          "type": "bytes32"
        },
        {
          "internalType": "bytes",
          "name": "signature",
          "type": "bytes"
        }
      ],
      "name": "requestBrokerApproval",
      "outputs": [
        {
          "internalType": "bool",
          "name": "",
          "type": "bool"
        }
      ],
      "stateMutability": "nonpayable",
      "type": "function"
    },
    {
      "inputs": [],
      "name": "getBrokerInQueueCount",
      "outputs": [
        {
          "internalType": "uint256",
          "name": "",
          "type": "uint256"
        }
      ],
      "stateMutability": "view",
      "type": "function",
      "constant": true
    },
    {
      "inputs": [
        {
          "internalType": "uint256",
          "name": "index",
          "type": "uint256"
        }
      ],
      "name": "getBrokerInQueueByIndex",
      "outputs": [
        {
          "internalType": "address",
          "name": "",
          "type": "address"
        },
        {
          "internalType": "string",
          "name": "",
          "type": "string"
        },
        {
          "internalType": "bytes32",
          "name": "",
          "type": "bytes32"
        }
      ],
      "stateMutability": "view",
      "type": "function",
      "constant": true
    },
    {
      "inputs": [
        {
          "internalType": "address",
          "name": "account",
          "type": "address"
        }
      ],
      "name": "getBrokerInQueueByAddress",
      "outputs": [
        {
          "internalType": "address",
          "name": "",
          "type": "address"
        },
        {
          "internalType": "string",
          "name": "",
          "type": "string"
        },
        {
          "internalType": "bytes32",
          "name": "",
          "type": "bytes32"
        }
      ],
      "stateMutability": "view",
      "type": "function",
      "constant": true
    },
    {
      "inputs": [],
      "name": "getBrokerCount",
      "outputs": [
        {
          "internalType": "uint256",
          "name": "",
          "type": "uint256"
        }
      ],
      "stateMutability": "view",
      "type": "function",
      "constant": true
    },
    {
      "inputs": [
        {
          "internalType": "uint256",
          "name": "index",
          "type": "uint256"
        }
      ],
      "name": "getBrokerByIndex",
      "outputs": [
        {
          "internalType": "address",
          "name": "",
          "type": "address"
        },
        {
          "internalType": "string",
          "name": "",
          "type": "string"
        },
        {
          "internalType": "bytes32",
          "name": "",
          "type": "bytes32"
        }
      ],
      "stateMutability": "view",
      "type": "function",
      "constant": true
    },
    {
      "inputs": [
        {
          "internalType": "address",
          "name": "account",
          "type": "address"
        }
      ],
      "name": "getBrokerByAddress",
      "outputs": [
        {
          "internalType": "address",
          "name": "",
          "type": "address"
        },
        {
          "internalType": "string",
          "name": "",
          "type": "string"
        },
        {
          "internalType": "bytes32",
          "name": "",
          "type": "bytes32"
        }
      ],
      "stateMutability": "view",
      "type": "function",
      "constant": true
    },
    {
      "inputs": [],
      "name": "renounceBroker",
      "outputs": [],
      "stateMutability": "nonpayable",
      "type": "function"
    },
    {
      "inputs": [
        {
          "internalType": "string",
          "name": "id",
          "type": "string"
        },
        {
          "internalType": "bytes32",
          "name": "PoA_hash",
          "type": "bytes32"
        },
        {
          "internalType": "bytes",
          "name": "signature",
          "type": "bytes"
        },
        {
          "internalType": "address[]",
          "name": "proxies",
          "type": "address[]"
        }
      ],
      "name": "requestEntityApproval",
      "outputs": [
        {
          "internalType": "bool",
          "name": "",
          "type": "bool"
        }
      ],
      "stateMutability": "nonpayable",
      "type": "function"
    },
    {
      "inputs": [],
      "name": "getEntityInQueueCount",
      "outputs": [
        {
          "internalType": "uint256",
          "name": "",
          "type": "uint256"
        }
      ],
      "stateMutability": "view",
      "type": "function",
      "constant": true
    },
    {
      "inputs": [
        {
          "internalType": "uint256",
          "name": "index",
          "type": "uint256"
        }
      ],
      "name": "getEntityInQueueByIndex",
      "outputs": [
        {
          "internalType": "address",
          "name": "",
          "type": "address"
        },
        {
          "internalType": "string",
          "name": "",
          "type": "string"
        },
        {
          "internalType": "bytes32",
          "name": "",
          "type": "bytes32"
        },
        {
          "internalType": "address[]",
          "name": "",
          "type": "address[]"
        }
      ],
      "stateMutability": "view",
      "type": "function",
      "constant": true
    },
    {
      "inputs": [
        {
          "internalType": "address",
          "name": "account",
          "type": "address"
        }
      ],
      "name": "getEntityInQueueByAddress",
      "outputs": [
        {
          "internalType": "address",
          "name": "",
          "type": "address"
        },
        {
          "internalType": "string",
          "name": "",
          "type": "string"
        },
        {
          "internalType": "bytes32",
          "name": "",
          "type": "bytes32"
        },
        {
          "internalType": "address[]",
          "name": "",
          "type": "address[]"
        }
      ],
      "stateMutability": "view",
      "type": "function",
      "constant": true
    },
    {
      "inputs": [],
      "name": "getEntityCount",
      "outputs": [
        {
          "internalType": "uint256",
          "name": "",
          "type": "uint256"
        }
      ],
      "stateMutability": "view",
      "type": "function",
      "constant": true
    },
    {
      "inputs": [
        {
          "internalType": "uint256",
          "name": "index",
          "type": "uint256"
        }
      ],
      "name": "getEntityByIndex",
      "outputs": [
        {
          "internalType": "address",
          "name": "",
          "type": "address"
        },
        {
          "internalType": "string",
          "name": "",
          "type": "string"
        },
        {
          "internalType": "bytes32",
          "name": "",
          "type": "bytes32"
        },
        {
          "internalType": "address[]",
          "name": "",
          "type": "address[]"
        }
      ],
      "stateMutability": "view",
      "type": "function",
      "constant": true
    },
    {
      "inputs": [
        {
          "internalType": "address",
          "name": "account",
          "type": "address"
        }
      ],
      "name": "getEntityByAddress",
      "outputs": [
        {
          "internalType": "address",
          "name": "",
          "type": "address"
        },
        {
          "internalType": "string",
          "name": "",
          "type": "string"
        },
        {
          "internalType": "bytes32",
          "name": "",
          "type": "bytes32"
        },
        {
          "internalType": "address[]",
          "name": "",
          "type": "address[]"
        }
      ],
      "stateMutability": "view",
      "type": "function",
      "constant": true
    },
    {
      "inputs": [],
      "name": "renounceEntity",
      "outputs": [],
      "stateMutability": "nonpayable",
      "type": "function"
    },
    {
      "inputs": [
        {
          "internalType": "address",
          "name": "owner",
          "type": "address"
        },
        {
          "internalType": "bytes32",
          "name": "hash",
          "type": "bytes32"
        },
        {
          "internalType": "bytes",
          "name": "signature",
          "type": "bytes"
        }
      ],
      "name": "isSigner",
      "outputs": [
        {
          "internalType": "bool",
          "name": "",
          "type": "bool"
        }
      ],
      "stateMutability": "pure",
      "type": "function",
      "constant": true
    },
    {
      "inputs": [
        {
          "internalType": "bytes32",
          "name": "hash",
          "type": "bytes32"
        }
      ],
      "name": "hashToSign",
      "outputs": [
        {
          "internalType": "bytes32",
          "name": "",
          "type": "bytes32"
        }
      ],
      "stateMutability": "pure",
      "type": "function",
      "constant": true
    },
    {
      "inputs": [
        {
          "internalType": "bytes32",
          "name": "hash",
          "type": "bytes32"
        },
        {
          "internalType": "bytes",
          "name": "signature",
          "type": "bytes"
        }
      ],
      "name": "recover",
      "outputs": [
        {
          "internalType": "address",
          "name": "",
          "type": "address"
        }
      ],
      "stateMutability": "pure",
      "type": "function",
      "constant": true
    }
  ],
  "bytecode": "0x60806040523480156200001157600080fd5b50620000286000336001600160e01b036200010616565b604080516a4e4f544152595f524f4c4560a81b8152905190819003600b0190206200005e9060006001600160e01b036200011f16565b604080516a454e544954595f524f4c4560a81b8152815190819003600b90810182206a4e4f544152595f524f4c4560a81b8352925191829003019020620000af91906001600160e01b036200011f16565b604080516a42524f4b45525f524f4c4560a81b8152815190819003600b90810182206a4e4f544152595f524f4c4560a81b83529251918290030190206200010091906001600160e01b036200011f16565b62000290565b6200011b82826001600160e01b036200017116565b5050565b600082815260208190526040808220600201549051839285917fbd79b86ffe0ab8e8776151514217cd7cacd52c909f66475c3af44e129f0b00ff9190a460009182526020829052604090912060020155565b600082815260208181526040909120620001969183906200227f620001f3821b17901c565b156200011b57620001af6001600160e01b036200021c16565b6001600160a01b0316816001600160a01b0316837f2f8788117e7eff1d82e926ec794901d17c78024a50270940304540a733656f0d60405160405180910390a45050565b600062000213836001600160a01b0384166001600160e01b036200022016565b90505b92915050565b3390565b60006200023783836001600160e01b036200027816565b6200026f5750815460018181018455600084815260208082209093018490558454848252828601909352604090209190915562000216565b50600062000216565b60009081526001919091016020526040902054151590565b612ba280620002a06000396000f3fe608060405234801561001057600080fd5b50600436106102745760003560e01c80638bad0c0a11610151578063d26ae07d116100c3578063e2048c0211610087578063e2048c0214610b86578063eb534bde14610b8e578063f13eed9714610bb4578063f1703d2414610bda578063fa0b97f314610c00578063fc623ef814610cb957610274565b8063d26ae07d14610935578063d547741f1461095b578063d6451b9514610987578063d99d6f9a14610b3a578063dd18299614610b6057610274565b8063a5caefa111610115578063a5caefa114610875578063b21afb0814610892578063b3560039146108b8578063b4e9e7e0146108de578063c07dc7f5146108fb578063ca15c8731461091857610274565b80638bad0c0a1461076b5780638e90bcd2146107735780639010d07c1461081e57806391d1485414610841578063a217fddf1461086d57610274565b806336568abe116101ea57806370480275116101ae57806370480275146106e15780638082052314610707578063836cae651461070f57806386785a6f146107355780638b72309b1461075b5780638b7bf3eb1461076357610274565b806336568abe1461056c578063431e5c9d14610598578063510c7b2f146105a05780635d0224b0146105a85780635d1b45b5146106d957610274565b806322b31d9f1161023c57806322b31d9f146104b5578063248a9ca3146104db57806324d7806c1461050a5780632df57309146105305780632f2ff15d1461053857806330dc7ce61461056457610274565b80630588565f1461027957806308130d71146102a1578063111fd88b1461039757806314887c58146103d057806319045a251461040a575b600080fd5b61029f6004803603602081101561028f57600080fd5b50356001600160a01b0316610cd6565b005b6102be600480360360208110156102b757600080fd5b5035610d55565b60405180856001600160a01b03166001600160a01b031681526020018060200184815260200180602001838103835286818151815260200191508051906020019080838360005b8381101561031d578181015183820152602001610305565b50505050905090810190601f16801561034a5780820380516001836020036101000a031916815260200191505b508381038252845181528451602091820191808701910280838360005b8381101561037f578181015183820152602001610367565b50505050905001965050505050505060405180910390f35b6103b4600480360360208110156103ad57600080fd5b5035610dcc565b604080516001600160a01b039092168252519081900360200190f35b6103f6600480360360208110156103e657600080fd5b50356001600160a01b0316610de0565b604080519115158252519081900360200190f35b6103b46004803603604081101561042057600080fd5b81359190810190604081016020820135600160201b81111561044157600080fd5b82018360208201111561045357600080fd5b803590602001918460018302840111600160201b8311171561047457600080fd5b91908080601f016020809104026020016040519081016040528093929190818152602001838380828437600092019190915250929550610e0d945050505050565b6103f6600480360360208110156104cb57600080fd5b50356001600160a01b0316610e28565b6104f8600480360360208110156104f157600080fd5b5035610e55565b60408051918252519081900360200190f35b6103f66004803603602081101561052057600080fd5b50356001600160a01b0316610e6a565b6104f8610e76565b61029f6004803603604081101561054e57600080fd5b50803590602001356001600160a01b0316610e88565b61029f610ef4565b61029f6004803603604081101561058257600080fd5b50803590602001356001600160a01b0316610f20565b61029f610f81565b6104f8610fab565b6103f6600480360360608110156105be57600080fd5b810190602081018135600160201b8111156105d857600080fd5b8201836020820111156105ea57600080fd5b803590602001918460018302840111600160201b8311171561060b57600080fd5b91908080601f01602080910402602001604051908101604052809392919081815260200183838082843760009201919091525092958435959094909350604081019250602001359050600160201b81111561066557600080fd5b82018360208201111561067757600080fd5b803590602001918460018302840111600160201b8311171561069857600080fd5b91908080601f016020809104026020016040519081016040528093929190818152602001838380828437600092019190915250929550610fd7945050505050565b6104f86111d5565b61029f600480360360208110156106f757600080fd5b50356001600160a01b0316611201565b6104f861125e565b6103f66004803603602081101561072557600080fd5b50356001600160a01b031661128a565b61029f6004803603602081101561074b57600080fd5b50356001600160a01b031661143c565b61029f6114b8565b6104f86114e2565b61029f6114ed565b6107906004803603602081101561078957600080fd5b50356114f8565b604080516001600160a01b0385168152908101829052606060208083018281528551928401929092528451608084019186019080838360005b838110156107e15781810151838201526020016107c9565b50505050905090810190601f16801561080e5780820380516001836020036101000a031916815260200191505b5094505050505060405180910390f35b6103b46004803603604081101561083457600080fd5b5080359060200135611540565b6103f66004803603604081101561085757600080fd5b50803590602001356001600160a01b031661155e565b6104f861157c565b6102be6004803603602081101561088b57600080fd5b5035611581565b6102be600480360360208110156108a857600080fd5b50356001600160a01b03166115be565b6102be600480360360208110156108ce57600080fd5b50356001600160a01b0316611750565b610790600480360360208110156108f457600080fd5b5035611810565b6103b46004803603602081101561091157600080fd5b5035611876565b6104f86004803603602081101561092e57600080fd5b50356118a3565b6107906004803603602081101561094b57600080fd5b50356001600160a01b03166118ba565b61029f6004803603604081101561097157600080fd5b50803590602001356001600160a01b03166119e8565b6103f66004803603608081101561099d57600080fd5b810190602081018135600160201b8111156109b757600080fd5b8201836020820111156109c957600080fd5b803590602001918460018302840111600160201b831117156109ea57600080fd5b91908080601f01602080910402602001604051908101604052809392919081815260200183838082843760009201919091525092958435959094909350604081019250602001359050600160201b811115610a4457600080fd5b820183602082011115610a5657600080fd5b803590602001918460018302840111600160201b83111715610a7757600080fd5b91908080601f0160208091040260200160405190810160405280939291908181526020018383808284376000920191909152509295949360208101935035915050600160201b811115610ac957600080fd5b820183602082011115610adb57600080fd5b803590602001918460208302840111600160201b83111715610afc57600080fd5b919080806020026020016040519081016040528093929190818152602001838360200280828437600092019190915250929550611a41945050505050565b61029f60048036036020811015610b5057600080fd5b50356001600160a01b0316611d3a565b61029f60048036036020811015610b7657600080fd5b50356001600160a01b0316611db8565b6104f8611e36565b61079060048036036020811015610ba457600080fd5b50356001600160a01b0316611e42565b6103f660048036036020811015610bca57600080fd5b50356001600160a01b0316611eff565b6103f660048036036020811015610bf057600080fd5b50356001600160a01b0316611f2c565b6103f660048036036060811015610c1657600080fd5b6001600160a01b0382351691602081013591810190606081016040820135600160201b811115610c4557600080fd5b820183602082011115610c5757600080fd5b803590602001918460018302840111600160201b83111715610c7857600080fd5b91908080601f016020809104026020016040519081016040528093929190818152602001838380828437600092019190915250929550612222945050505050565b6104f860048036036020811015610ccf57600080fd5b5035612274565b610cdf33610e6a565b610d28576040805162461bcd60e51b81526020600482015260156024820152742932b9ba3934b1ba32b2103a379030b236b4b7399760591b604482015290519081900360640190fd5b604080516a4e4f544152595f524f4c4560a81b8152905190819003600b019020610d529082610e88565b50565b600060606000606084610d686003612294565b11610da45760405162461bcd60e51b81526004018080602001828103825260318152602001806129dd6031913960400191505060405180910390fd5b610dbd610db860038763ffffffff61229f16565b6115be565b93509350935093509193509193565b6000610dd88183611540565b90505b919050565b604080516a454e544954595f524f4c4560a81b8152905190819003600b019020600090610dd8908361155e565b6000610e1f838363ffffffff6122ab16565b90505b92915050565b604080516a42524f4b45525f524f4c4560a81b8152905190819003600b019020600090610dd8908361155e565b60009081526020819052604090206002015490565b6000610dd8818361155e565b6000610e826005612294565b90505b90565b600082815260208190526040902060020154610eab90610ea6612492565b61155e565b610ee65760405162461bcd60e51b815260040180806020018281038252602f8152602001806128bf602f913960400191505060405180910390fd5b610ef08282612496565b5050565b604080516a454e544954595f524f4c4560a81b8152905190819003600b019020610f1e9033610f20565b565b610f28612492565b6001600160a01b0316816001600160a01b031614610f775760405162461bcd60e51b815260040180806020018281038252602f815260200180612b3e602f913960400191505060405180910390fd5b610ef08282612505565b604080516a42524f4b45525f524f4c4560a81b8152905190819003600b019020610f1e9033610f20565b604080516a4e4f544152595f524f4c4560a81b8152905190819003600b019020600090610e82906118a3565b6000808451116110185760405162461bcd60e51b8152600401808060200182810382526027815260200180612aae6027913960400191505060405180910390fd5b33600090815260026020819052604090912054600019610100600183161502011604156110765760405162461bcd60e51b81526004018080602001828103825260298152602001806128ee6029913960400191505060405180910390fd5b611081338484612222565b151560011461111857816040518082805190602001908083835b602083106110ba5780518252601f19909201916020918201910161109b565b5181516020939093036101000a600019018019909116921691909117905260405192018290038220935086925033917fea6154ca72fcd44d25d32f99d281da0aa5c0cc9569dc04350831e5138603c9899150600090a45060006111ce565b33600090815260026020908152604090912085516111389287019061277f565b503360008181526002602081905260409091206001810180546001600160a01b03191684179055018490556111759060059063ffffffff61227f16565b151560011461119f576040513390600080516020612b1e83398151915290600090a25060006111ce565b60405133907fdca7a7b45826ac6810c814782a82fd764d6e15247a0b875eca4b4dd814d23c3d90600090a25060015b9392505050565b604080516a454e544954595f524f4c4560a81b8152905190819003600b019020600090610e82906118a3565b61120a33610e6a565b611253576040805162461bcd60e51b81526020600482015260156024820152742932b9ba3934b1ba32b2103a379030b236b4b7399760591b604482015290519081900360640190fd5b610d52600082610e88565b604080516a42524f4b45525f524f4c4560a81b8152905190819003600b019020600090610e82906118a3565b600061129533611eff565b6112e0576040805162461bcd60e51b81526020600482015260176024820152762932b9ba3934b1ba32b2103a37903737ba30b934b2b99760491b604482015290519081900360640190fd5b6112f160058363ffffffff61257416565b61132c5760405162461bcd60e51b81526004018080602001828103825260288152602001806129b56028913960400191505060405180910390fd5b6001600160a01b0382166000908152600260208190526040909120546000196101006001831615020116046113925760405162461bcd60e51b81526004018080602001828103825260228152602001806129176022913960400191505060405180910390fd5b6113a360058363ffffffff61258916565b15156001146113d6576040516001600160a01b03831690600080516020612b1e83398151915290600090a2506000610ddb565b604080516a42524f4b45525f524f4c4560a81b8152905190819003600b0190206114009083610e88565b6040516001600160a01b038316907f94c3e3cbce5d84026debfdd140c72a40e4529c148e2479d8f90d27c0b719100c90600090a2506001919050565b61144533610e6a565b61148e576040805162461bcd60e51b81526020600482015260156024820152742932b9ba3934b1ba32b2103a379030b236b4b7399760591b604482015290519081900360640190fd5b604080516a4e4f544152595f524f4c4560a81b8152905190819003600b019020610d5290826119e8565b604080516a4e4f544152595f524f4c4560a81b8152905190819003600b019020610f1e9033610f20565b6000610e82816118a3565b610f1e600033610f20565b60006060600061153361152e60405180806a42524f4b45525f524f4c4560a81b815250600b019050604051809103902086611540565b611e42565b9250925092509193909250565b6000828152602081905260408120610e1f908363ffffffff61229f16565b6000828152602081905260408120610e1f908363ffffffff61257416565b600081565b6000606060006060610dbd6115b960405180806a454e544954595f524f4c4560a81b815250600b019050604051809103902087611540565b611750565b6000606081816115d560038663ffffffff61257416565b151560011461162b576040805162461bcd60e51b815260206004820181905260248201527f456e74697479206973206e6f7420696e20617070726f76616c20717565756521604482015290519081900360640190fd5b6001600160a01b0385811660009081526001602081815260409283902080830154600280830154835487516101009782161597909702600019011691909104601f8101859004850286018501909652858552951694909390926003850192909185918301828280156116de5780601f106116b3576101008083540402835291602001916116de565b820191906000526020600020905b8154815290600101906020018083116116c157829003601f168201915b505050505092508080548060200260200160405190810160405280929190818152602001828054801561173a57602002820191906000526020600020905b81546001600160a01b0316815260019091019060200180831161171c575b5050505050905093509350935093509193509193565b600060606000606061176185610de0565b6117a9576040805162461bcd60e51b8152602060048201526014602482015273456e74697479206e6f7420617070726f7665642160601b604482015290519081900360640190fd5b6001600160a01b0385166000908152600160208190526040909120546002918116156101000260001901160461162b5760405162461bcd60e51b8152600401808060200182810382526022815260200180612afc6022913960400191505060405180910390fd5b600060606000836118216005612294565b1161185d5760405162461bcd60e51b81526004018080602001828103825260318152602001806129396031913960400191505060405180910390fd5b61153361187160058663ffffffff61229f16565b6118ba565b604080516a4e4f544152595f524f4c4560a81b8152905190819003600b019020600090610dd89083611540565b6000818152602081905260408120610dd890612294565b60006060816118d060058563ffffffff61257416565b1515600114611926576040805162461bcd60e51b815260206004820181905260248201527f42726f6b6572206973206e6f7420696e20617070726f76616c20717565756521604482015290519081900360640190fd5b6001600160a01b0384811660009081526002602081815260409283902060018082015482850154835487516101009482161594909402600019011695909504601f810185900485028301850190965285825290951694909390918491908301828280156119d45780601f106119a9576101008083540402835291602001916119d4565b820191906000526020600020905b8154815290600101906020018083116119b757829003601f168201915b505050505091509250925092509193909250565b600082815260208190526040902060020154611a0690610ea6612492565b610f775760405162461bcd60e51b8152600401808060200182810382526030815260200180612a0e6030913960400191505060405180910390fd5b600080855111611a825760405162461bcd60e51b8152600401808060200182810382526027815260200180612ad56027913960400191505060405180910390fd5b6000825111611ad8576040805162461bcd60e51b815260206004820181905260248201527f456e746974792070726f786965732063616e206e6f7420626520656d70747921604482015290519081900360640190fd5b336000908152600160208190526040909120546002918116156101000260001901160415611b375760405162461bcd60e51b815260040180806020018281038252602981526020018061296a6029913960400191505060405180910390fd5b611b42338585612222565b1515600114611bd957826040518082805190602001908083835b60208310611b7b5780518252601f199092019160209182019101611b5c565b5181516020939093036101000a600019018019909116921691909117905260405192018290038220935087925033917fea6154ca72fcd44d25d32f99d281da0aa5c0cc9569dc04350831e5138603c9899150600090a4506000611d32565b60005b8251811015611c6557611c01838281518110611bf457fe5b6020026020010151610e28565b1515600114611c5d57828181518110611c1657fe5b60200260200101516001600160a01b03167f6df8dec1b558f0d3edccfc4a54a9706951380dc09c62983735ff8b736a6f0d5660405160405180910390a26000915050611d32565b600101611bdc565b503360009081526001602090815260409091208651611c869288019061277f565b5033600081815260016020818152604090922090810180546001600160a01b031916909317909255600282018690558351611cc792600301918501906127fd565b50611cd960033363ffffffff61227f16565b1515600114611d03576040513390600080516020612b1e83398151915290600090a2506000611d32565b60405133907fa91df249f850beb70541f02c02bc00c17086331417b358c3b1a77ee24fa28e9c90600090a25060015b949350505050565b611d4333611eff565b611d8e576040805162461bcd60e51b81526020600482015260176024820152762932b9ba3934b1ba32b2103a37903737ba30b934b2b99760491b604482015290519081900360640190fd5b604080516a42524f4b45525f524f4c4560a81b8152905190819003600b019020610d5290826119e8565b611dc133611eff565b611e0c576040805162461bcd60e51b81526020600482015260176024820152762932b9ba3934b1ba32b2103a37903737ba30b934b2b99760491b604482015290519081900360640190fd5b604080516a454e544954595f524f4c4560a81b8152905190819003600b019020610d5290826119e8565b6000610e826003612294565b600060606000611e5184610e28565b611e99576040805162461bcd60e51b815260206004820152601460248201527342726f6b6572206e6f7420617070726f7665642160601b604482015290519081900360640190fd5b6001600160a01b0384166000908152600260208190526040909120546000196101006001831615020116046119265760405162461bcd60e51b81526004018080602001828103825260228152602001806129176022913960400191505060405180910390fd5b604080516a4e4f544152595f524f4c4560a81b8152905190819003600b019020600090610dd8908361155e565b6000611f3733611eff565b611f82576040805162461bcd60e51b81526020600482015260176024820152762932b9ba3934b1ba32b2103a37903737ba30b934b2b99760491b604482015290519081900360640190fd5b611f9360038363ffffffff61257416565b611fce5760405162461bcd60e51b8152600401808060200182810382526028815260200180612a866028913960400191505060405180910390fd5b6001600160a01b038216600090815260016020819052604090912054600291811615610100026000190116046120355760405162461bcd60e51b8152600401808060200182810382526022815260200180612afc6022913960400191505060405180910390fd5b6001600160a01b03821660009081526001602052604090206003015461208c5760405162461bcd60e51b8152600401808060200182810382526026815260200180612a606026913960400191505060405180910390fd5b60005b6001600160a01b038316600090815260016020526040902060030154811015612177576001600160a01b038316600090815260016020526040902060030180546120f89190839081106120de57fe5b6000918252602090912001546001600160a01b0316610e28565b151560011461216f576001600160a01b038316600090815260016020526040902060030180548290811061212857fe5b60009182526020822001546040516001600160a01b03909116917f6df8dec1b558f0d3edccfc4a54a9706951380dc09c62983735ff8b736a6f0d5691a26000915050610ddb565b60010161208f565b5061218960038363ffffffff61258916565b15156001146121bc576040516001600160a01b03831690600080516020612b1e83398151915290600090a2506000610ddb565b604080516a454e544954595f524f4c4560a81b8152905190819003600b0190206121e69083610e88565b6040516001600160a01b038316907f9d299f5253511265bc0c6d48bc28b78113af46e8fdc875167b7d5c9bd0a486c390600090a2506001919050565b60008061222e8461259e565b90506000612242828563ffffffff6122ab16565b9050856001600160a01b0316816001600160a01b031614612268576000925050506111ce565b50600195945050505050565b6000610dd88261259e565b6000610e1f836001600160a01b0384166125ef565b6000610dd882612639565b6000610e1f838361263d565b60008151604114612303576040805162461bcd60e51b815260206004820152601f60248201527f45434453413a20696e76616c6964207369676e6174757265206c656e67746800604482015290519081900360640190fd5b60208201516040830151606084015160001a7f7fffffffffffffffffffffffffffffff5d576e7357a4501ddfe92f46681b20a08211156123745760405162461bcd60e51b81526004018080602001828103825260228152602001806129936022913960400191505060405180910390fd5b8060ff16601b1415801561238c57508060ff16601c14155b156123c85760405162461bcd60e51b8152600401808060200182810382526022815260200180612a3e6022913960400191505060405180910390fd5b60408051600080825260208083018085528a905260ff85168385015260608301879052608083018690529251909260019260a080820193601f1981019281900390910190855afa158015612420573d6000803e3d6000fd5b5050604051601f1901519150506001600160a01b038116612488576040805162461bcd60e51b815260206004820152601860248201527f45434453413a20696e76616c6964207369676e61747572650000000000000000604482015290519081900360640190fd5b9695505050505050565b3390565b60008281526020819052604090206124b4908263ffffffff61227f16565b15610ef0576124c1612492565b6001600160a01b0316816001600160a01b0316837f2f8788117e7eff1d82e926ec794901d17c78024a50270940304540a733656f0d60405160405180910390a45050565b6000828152602081905260409020612523908263ffffffff61258916565b15610ef057612530612492565b6001600160a01b0316816001600160a01b0316837ff6391f5c32d9c69d2a47ea670b442974b53935d1edc7fd64eb21e047a839171b60405160405180910390a45050565b6000610e1f836001600160a01b0384166126a1565b6000610e1f836001600160a01b0384166126b9565b604080517f19457468657265756d205369676e6564204d6573736167653a0a333200000000602080830191909152603c8083019490945282518083039094018452605c909101909152815191012090565b60006125fb83836126a1565b61263157508154600181810184556000848152602080822090930184905584548482528286019093526040902091909155610e22565b506000610e22565b5490565b8154600090821061267f5760405162461bcd60e51b815260040180806020018281038252602281526020018061289d6022913960400191505060405180910390fd5b82600001828154811061268e57fe5b9060005260206000200154905092915050565b60009081526001919091016020526040902054151590565b6000818152600183016020526040812054801561277557835460001980830191908101906000908790839081106126ec57fe5b906000526020600020015490508087600001848154811061270957fe5b60009182526020808320909101929092558281526001898101909252604090209084019055865487908061273957fe5b60019003818190600052602060002001600090559055866001016000878152602001908152602001600020600090556001945050505050610e22565b6000915050610e22565b828054600181600116156101000203166002900490600052602060002090601f016020900481019282601f106127c057805160ff19168380011785556127ed565b828001600101855582156127ed579182015b828111156127ed5782518255916020019190600101906127d2565b506127f992915061285e565b5090565b828054828255906000526020600020908101928215612852579160200282015b8281111561285257825182546001600160a01b0319166001600160a01b0390911617825560209092019160019091019061281d565b506127f9929150612878565b610e8591905b808211156127f95760008155600101612864565b610e8591905b808211156127f95780546001600160a01b031916815560010161287e56fe456e756d657261626c655365743a20696e646578206f7574206f6620626f756e6473416363657373436f6e74726f6c3a2073656e646572206d75737420626520616e2061646d696e20746f206772616e7442726f6b657220616c726561647920617070726f7665642c20616464726573732070726573656e742142726f6b65722073686f756c642068617665206170706c696564206265666f72652142726f6b6572207175657565206c656e6774682073686f756c642062652067726561746572207468616e20696e64657821456e7469747920616c726561647920617070726f7665642c20616464726573732070726573656e742145434453413a20696e76616c6964207369676e6174757265202773272076616c756542726f6b65722071756575652073686f756c6420636f6e7461696e20746865206164647265737321456e74697479207175657565206c656e6774682073686f756c642062652067726561746572207468616e20696e64657821416363657373436f6e74726f6c3a2073656e646572206d75737420626520616e2061646d696e20746f207265766f6b6545434453413a20696e76616c6964207369676e6174757265202776272076616c7565456e746974792073686f756c642068617665206174206c65617374206f6e652070726f787921456e746974792071756575652073686f756c6420636f6e7461696e2074686520616464726573732142726f6b6572206170706c69636174696f6e2069642063616e206e6f7420626520656d70747921456e74697479206170706c69636174696f6e2069642063616e206e6f7420626520656d70747921456e746974792073686f756c642068617665206170706c696564206265666f726521377e51a2993fc4be2b26cae8c0ee875e36bf09b7708c81459e13dd91b239c7fc416363657373436f6e74726f6c3a2063616e206f6e6c792072656e6f756e636520726f6c657320666f722073656c66a2646970667358221220cee483688e19a09b85e5e879fea77ec091907e0c80ae1f5a9a40fc83dbd741d264736f6c634300060a0033",
  "immutableReferences": {},
  "source": "// SPDX-License-Identifier: MIT\n\npragma solidity ^0.6.0;\n\nimport \"../node_modules/openzeppelin-solidity/contracts/cryptography/ECDSA.sol\";\nimport \"../node_modules/openzeppelin-solidity/contracts/access/AccessControl.sol\";\n\n/**\n * @title YKTS\n * @author Kazm Rfat zylmaz\n * @notice Implements YKTS with access control\n */\ncontract YKTS is AccessControl {\n\n    // for EC-recover functionality\n    using ECDSA for bytes32;\n    // for safe add(), remove() functionality of address sets\n    using EnumerableSet for EnumerableSet.AddressSet;\n    // possible use of Address extensions like isContract()\n    using Address for address;\n\n    // everything about entities\n    struct Entity {\n        // application id given by Digital Notary/MERSIS\n        string id;\n        // address of the owner of the entity\n        address owner;\n        // hash of the Power of Attorney document\n        bytes32 PoA;\n        // array of delegated proxy addresses verified in PoA\n        address[] proxies;\n    }\n    // map addresses to entities\n    mapping(address => Entity) private entity_address_map;\n\n    // everything about brokers\n    struct Broker {\n        // application id given by Digital Notary/MERSIS\n        string id;\n        // address of the broker\n        address owner;\n        // hash of the Proof of Competence document\n        bytes32 PoC;\n    }\n    // map addresses to brokers\n    mapping(address => Broker) private broker_address_map;\n\n    // entity and broker application queues for notaries to approve\n    EnumerableSet.AddressSet entity_approval_queue;\n    EnumerableSet.AddressSet broker_approval_queue;\n\n    // roles in the system ADMIN > NOTARY > ENTITY & BROKER\n    bytes32 private constant NOTARY_ROLE = keccak256(\"NOTARY_ROLE\");\n    bytes32 private constant ENTITY_ROLE = keccak256(\"ENTITY_ROLE\");\n    bytes32 private constant BROKER_ROLE = keccak256(\"BROKER_ROLE\");\n\n    // broker is invalid\n    event BrokerInvalid(address indexed account);\n    // entity is invalid\n    event EntityInvalid(address indexed account);\n    // entity/broker approval queue operation failed\n    event QueueOpFailed(address indexed account);\n    // signature verification or EC-recover operation failed\n    event RecoverFailed(address indexed account, bytes32 indexed hash, bytes indexed signature);\n\n    // fired after a successfull Broker approval request\n    event BrokerRequest(address indexed account);\n    // fired after a successfull Entity approval request\n    event EntityRequest(address indexed account);\n    // fired after an Broker is successfully approved\n    event BrokerApprove(address indexed account);\n    // fired after an Entity is successfully approved\n    event EntityApprove(address indexed account);\n\n\n    /// @dev Add contract creator to the admin role as a member.\n    constructor() public {\n        // Grant the contract deployer the default admin role: it will be able\n        // to grant and revoke any roles\n        _setupRole(DEFAULT_ADMIN_ROLE, msg.sender);\n        _setRoleAdmin(NOTARY_ROLE, DEFAULT_ADMIN_ROLE);\n        _setRoleAdmin(ENTITY_ROLE, NOTARY_ROLE);\n        _setRoleAdmin(BROKER_ROLE, NOTARY_ROLE);\n    }\n\n    /// @dev Restricted to members of the admin role.\n    modifier onlyAdmin() {\n        require(isAdmin(msg.sender), \"Restricted to admins.\");\n        _;\n    }\n    /// @dev Restricted to members of the notary role.\n    modifier onlyNotary() {\n        require(isNotary(msg.sender), \"Restricted to notaries.\");\n        _;\n    }\n    /// @dev Restricted to members of the entity role.\n    modifier onlyEntity() {\n        require(isEntity(msg.sender), \"Restricted to entities.\");\n        _;\n    }\n    /// @dev Restricted to members of the broker role.\n    modifier onlyBroker() {\n        require(isBroker(msg.sender), \"Restricted to brokers.\");\n        _;\n    }\n\n    /// @dev Return `true` if the account belongs to the admin role.\n    function isAdmin(address account) public view returns (bool) {\n        return hasRole(DEFAULT_ADMIN_ROLE, account);\n    }\n    /// @dev Return `true` if the account belongs to the notary role.\n    function isNotary(address account) public view returns (bool) {\n        return hasRole(NOTARY_ROLE, account);\n    }\n    /// @dev Return `true` if the account belongs to the entity role.\n    function isEntity(address account) public view returns (bool) {\n        return hasRole(ENTITY_ROLE, account);\n    }\n    /// @dev Return `true` if the account belongs to the broker role.\n    function isBroker(address account) public view returns (bool) {\n        return hasRole(BROKER_ROLE, account);\n    }\n\n    /// @dev Add an account to the admin role. Restricted to admins.\n    function addAdmin(address account) public onlyAdmin {\n        grantRole(DEFAULT_ADMIN_ROLE, account);\n    }\n    /// @dev Remove oneself from the admin role.\n    function renounceAdmin() public {\n        renounceRole(DEFAULT_ADMIN_ROLE, msg.sender);\n    }\n    /// @dev Get the total number of admins.\n    function getAdminCount() public view returns (uint256) {\n        return getRoleMemberCount(DEFAULT_ADMIN_ROLE);\n    }\n    /// @dev Get the total number of admins.\n    function getAdmin(uint256 index) public view returns (address) {\n        return getRoleMember(DEFAULT_ADMIN_ROLE, index);\n    }\n    /// @dev Add an account to the notary role. Restricted to admins.\n    function addNotary(address account) public onlyAdmin {\n        grantRole(NOTARY_ROLE, account);\n    }\n    /// @dev Remove an account from the notary role. Restricted to admins.\n    function removeNotary(address account) public onlyAdmin {\n        revokeRole(NOTARY_ROLE, account);\n    }\n    // TODO removeAdmin() discussion!\n\n\n\n    /// @dev Remove oneself from the notary role.\n    function renounceNotary() public virtual {\n        renounceRole(NOTARY_ROLE, msg.sender);\n    }\n    /// @dev Get the total number of notaries.\n    function getNotaryCount() public view returns (uint256) {\n        return getRoleMemberCount(NOTARY_ROLE);\n    }\n    /// @dev Get the total number of notaries.\n    function getNotary(uint256 index) public view returns (address) {\n        return getRoleMember(NOTARY_ROLE, index);\n    }\n    /// @dev Add an account to the broker role. Restricted to notaries.\n    function addBroker(address account) public onlyNotary returns(bool) {\n        require(broker_approval_queue.contains(account), \"Broker queue should contain the address!\");\n        require(bytes(broker_address_map[account].id).length > 0, \"Broker should have applied before!\");\n        if (broker_approval_queue.remove(account) != true) {\n            emit QueueOpFailed(account);\n            return false;\n        }\n        grantRole(BROKER_ROLE, account);\n        emit BrokerApprove(account);\n        return true;\n    }\n    /// @dev Remove an account from the broker role. Restricted to notaries.\n    function removeBroker(address account) public onlyNotary {\n        revokeRole(BROKER_ROLE, account);\n    }\n    /// @dev Add an account to the entity role. Restricted to notaries.\n    function addEntity(address account) public onlyNotary returns(bool) {\n        require(entity_approval_queue.contains(account), \"Entity queue should contain the address!\");\n        require(bytes(entity_address_map[account].id).length > 0, \"Entity should have applied before!\");\n        require(entity_address_map[account].proxies.length > 0, \"Entity should have at least one proxy!\");\n        // check if proxy Brokers are still valid\n        for (uint256 i = 0; i < entity_address_map[account].proxies.length; i++) {\n            if (isBroker(entity_address_map[account].proxies[i]) != true) {\n                emit BrokerInvalid(entity_address_map[account].proxies[i]);\n                return false;\n            }\n        }\n        if (entity_approval_queue.remove(account) != true) {\n            emit QueueOpFailed(account);\n            return false;\n        }\n        grantRole(ENTITY_ROLE, account);\n        emit EntityApprove(account);\n        return true;\n    }\n    /// @dev Remove an account from the entity role. Restricted to notaries.\n    function removeEntity(address account) public virtual onlyNotary {\n        revokeRole(ENTITY_ROLE, account);\n    }\n\n\n\n    /// @dev Return `true` if the broker approval request is valid and queued for notary\n    function requestBrokerApproval(string memory id, bytes32 PoC_hash, bytes memory signature) public returns(bool) {\n        // check if id is empty\n        require(bytes(id).length > 0, \"Broker application id can not be empty!\");\n        // check address mapping, if present\n        require(bytes(broker_address_map[msg.sender].id).length == 0, \"Broker already approved, address present!\");\n        // check Proof of Competence document hash signature\n        if (isSigner(msg.sender, PoC_hash, signature) != true) {\n            emit RecoverFailed(msg.sender, PoC_hash, signature);\n            return false;\n        }\n        // fill the mapping\n        broker_address_map[msg.sender].id = id;\n        broker_address_map[msg.sender].owner = msg.sender;\n        broker_address_map[msg.sender].PoC = PoC_hash;\n        // add to notary approval queue\n        if (broker_approval_queue.add(msg.sender) != true) {\n            emit QueueOpFailed(msg.sender);\n            return false;\n        }\n        emit BrokerRequest(msg.sender);\n        return true;\n    }\n    /// @dev Return the count of the broker approval requests queued for notarization\n    function getBrokerInQueueCount() public view returns(uint256) {\n        return broker_approval_queue.length();\n    }\n    /// @dev Return info on the broker in queue by index\n    function getBrokerInQueueByIndex(uint256 index) public view returns(address, string memory, bytes32) {\n        require(broker_approval_queue.length() > index, \"Broker queue length should be greater than index!\");\n        return getBrokerInQueueByAddress(broker_approval_queue.at(index));\n    }\n    /// @dev Return info on the broker in queue by address\n    function getBrokerInQueueByAddress(address account) public view returns(address, string memory, bytes32) {\n        require(broker_approval_queue.contains(account) == true, \"Broker is not in approval queue!\");\n        return (broker_address_map[account].owner,\n                broker_address_map[account].id,\n                broker_address_map[account].PoC);\n    }\n    /// @dev Get the total number of brokers\n    function getBrokerCount() public view returns (uint256) {\n        return getRoleMemberCount(BROKER_ROLE);\n    }\n    /// @dev Get broker by index\n    function getBrokerByIndex(uint256 index) public view returns (address, string memory, bytes32) {\n        return getBrokerByAddress(getRoleMember(BROKER_ROLE, index));\n    }\n    /// @dev Get broker by address\n    function getBrokerByAddress(address account) public view returns (address, string memory, bytes32) {\n        require(isBroker(account), \"Broker not approved!\");\n        require(bytes(broker_address_map[account].id).length > 0, \"Broker should have applied before!\");\n        return (broker_address_map[account].owner,\n                broker_address_map[account].id,\n                broker_address_map[account].PoC);\n    }\n    /// @dev Remove oneself from the broker role.\n    function renounceBroker() public {\n        renounceRole(BROKER_ROLE, msg.sender);\n    }\n\n\n\n    /// @dev Return `true` if the entity approval request is valid and queued for notary\n    function requestEntityApproval(string memory id, bytes32 PoA_hash, bytes memory signature, address[] memory proxies) public returns(bool) {\n        // check if id is empty\n        require(bytes(id).length > 0, \"Entity application id can not be empty!\");\n        // check if proxies is empty\n        require(proxies.length > 0, \"Entity proxies can not be empty!\");\n        // check address mapping, if present\n        require(bytes(entity_address_map[msg.sender].id).length == 0, \"Entity already approved, address present!\");\n        // check Power of Attorney document hash signature\n        if (isSigner(msg.sender, PoA_hash, signature) != true) {\n            emit RecoverFailed(msg.sender, PoA_hash, signature);\n            return false;\n        }\n        // check if proxies are already approved as Brokers\n        for (uint256 i = 0; i < proxies.length; i++) {\n            if (isBroker(proxies[i]) != true) {\n                emit BrokerInvalid(proxies[i]);\n                return false;\n            }\n        }\n        // fill the mapping\n        entity_address_map[msg.sender].id = id;\n        entity_address_map[msg.sender].owner = msg.sender;\n        entity_address_map[msg.sender].PoA = PoA_hash;\n        entity_address_map[msg.sender].proxies = proxies;\n        // add to notary approval queue\n        if (entity_approval_queue.add(msg.sender) != true) {\n            emit QueueOpFailed(msg.sender);\n            return false;\n        }\n        emit EntityRequest(msg.sender);\n        return true;\n    }\n    /// @dev Return the count of the broker approval requests queued for notarization\n    function getEntityInQueueCount() public view returns(uint256) {\n        return entity_approval_queue.length();\n    }\n    /// @dev Return info on the entity in the queue by index\n    function getEntityInQueueByIndex(uint256 index) public view returns(address, string memory, bytes32, address[] memory) {\n        require(entity_approval_queue.length() > index, \"Entity queue length should be greater than index!\");\n        return getEntityInQueueByAddress(entity_approval_queue.at(index));\n    }\n    /// @dev Return info on the entity in the queue by address\n    function getEntityInQueueByAddress(address account) public view returns(address, string memory, bytes32, address[] memory) {\n        require(entity_approval_queue.contains(account) == true, \"Entity is not in approval queue!\");\n        return (entity_address_map[account].owner,\n                entity_address_map[account].id,\n                entity_address_map[account].PoA,\n                entity_address_map[account].proxies);\n    }\n    /// @dev Get the total number of entities.\n    function getEntityCount() public view returns (uint256) {\n        return getRoleMemberCount(ENTITY_ROLE);\n    }\n    /// @dev Get entity by index\n    function getEntityByIndex(uint256 index) public view returns (address, string memory, bytes32, address[] memory) {\n        return getEntityByAddress(getRoleMember(ENTITY_ROLE, index));\n    }\n    /// @dev Get entity by address\n    function getEntityByAddress(address account) public view returns (address, string memory, bytes32, address[] memory) {\n        require(isEntity(account), \"Entity not approved!\");\n        require(bytes(entity_address_map[account].id).length > 0, \"Entity should have applied before!\");\n        return (entity_address_map[account].owner,\n                entity_address_map[account].id,\n                entity_address_map[account].PoA,\n                entity_address_map[account].proxies);\n    }\n    /// @dev Remove oneself from the entity role.\n    function renounceEntity() public virtual {\n        renounceRole(ENTITY_ROLE, msg.sender);\n    }\n\n\n\n    /// @dev Return `true` if the signature of the hash belongs to the specified owner.\n    function isSigner(address owner, bytes32 hash, bytes memory signature) public pure returns(bool) {\n        // Convert message hash to eth_sign() compatible format\n        bytes32 messageHash = hash.toEthSignedMessageHash();\n        // Verify that the message's signer is the owner\n        address signer = messageHash.recover(signature);\n        if (signer != owner) {\n            return false;\n        }\n        return true;\n    }\n    /// @dev Convert the hash value of a document/message (may be checksum or sha3()) to eth_sign() compatible format\n    function hashToSign(bytes32 hash) public pure returns(bytes32) {\n        return hash.toEthSignedMessageHash();\n    }\n    /// @dev To be removed - testing purposes\n    function recover(bytes32 hash, bytes memory signature) public pure returns(address) {\n        return hash.recover(signature);\n    }\n\n}",
  "sourcePath": "/Users/loki/devel/ykts/contracts/YKTS.sol",
  "compiler": {
    "name": "solc",
    "version": "0.6.10+commit.00c0fcaf.Emscripten.clang"
  },
  "schemaVersion": "3.2.0",
  "updatedAt": "2020-07-02T10:38:12.275Z",
  "networkType": "ethereum",
  "devdoc": {
    "author": "Kazm Rfat zylmaz",
    "methods": {
      "addAdmin(address)": {
        "details": "Add an account to the admin role. Restricted to admins."
      },
      "addBroker(address)": {
        "details": "Add an account to the broker role. Restricted to notaries."
      },
      "addEntity(address)": {
        "details": "Add an account to the entity role. Restricted to notaries."
      },
      "addNotary(address)": {
        "details": "Add an account to the notary role. Restricted to admins."
      },
      "constructor": {
        "details": "Add contract creator to the admin role as a member."
      },
      "getAdmin(uint256)": {
        "details": "Get the total number of admins."
      },
      "getAdminCount()": {
        "details": "Get the total number of admins."
      },
      "getBrokerByAddress(address)": {
        "details": "Get broker by address"
      },
      "getBrokerByIndex(uint256)": {
        "details": "Get broker by index"
      },
      "getBrokerCount()": {
        "details": "Get the total number of brokers"
      },
      "getBrokerInQueueByAddress(address)": {
        "details": "Return info on the broker in queue by address"
      },
      "getBrokerInQueueByIndex(uint256)": {
        "details": "Return info on the broker in queue by index"
      },
      "getBrokerInQueueCount()": {
        "details": "Return the count of the broker approval requests queued for notarization"
      },
      "getEntityByAddress(address)": {
        "details": "Get entity by address"
      },
      "getEntityByIndex(uint256)": {
        "details": "Get entity by index"
      },
      "getEntityCount()": {
        "details": "Get the total number of entities."
      },
      "getEntityInQueueByAddress(address)": {
        "details": "Return info on the entity in the queue by address"
      },
      "getEntityInQueueByIndex(uint256)": {
        "details": "Return info on the entity in the queue by index"
      },
      "getEntityInQueueCount()": {
        "details": "Return the count of the broker approval requests queued for notarization"
      },
      "getNotary(uint256)": {
        "details": "Get the total number of notaries."
      },
      "getNotaryCount()": {
        "details": "Get the total number of notaries."
      },
      "getRoleAdmin(bytes32)": {
        "details": "Returns the admin role that controls `role`. See {grantRole} and {revokeRole}. To change a role's admin, use {_setRoleAdmin}."
      },
      "getRoleMember(bytes32,uint256)": {
        "details": "Returns one of the accounts that have `role`. `index` must be a value between 0 and {getRoleMemberCount}, non-inclusive. Role bearers are not sorted in any particular way, and their ordering may change at any point. WARNING: When using {getRoleMember} and {getRoleMemberCount}, make sure you perform all queries on the same block. See the following https://forum.openzeppelin.com/t/iterating-over-elements-on-enumerableset-in-openzeppelin-contracts/2296[forum post] for more information."
      },
      "getRoleMemberCount(bytes32)": {
        "details": "Returns the number of accounts that have `role`. Can be used together with {getRoleMember} to enumerate all bearers of a role."
      },
      "grantRole(bytes32,address)": {
        "details": "Grants `role` to `account`. If `account` had not been already granted `role`, emits a {RoleGranted} event. Requirements: - the caller must have ``role``'s admin role."
      },
      "hasRole(bytes32,address)": {
        "details": "Returns `true` if `account` has been granted `role`."
      },
      "hashToSign(bytes32)": {
        "details": "Convert the hash value of a document/message (may be checksum or sha3()) to eth_sign() compatible format"
      },
      "isAdmin(address)": {
        "details": "Return `true` if the account belongs to the admin role."
      },
      "isBroker(address)": {
        "details": "Return `true` if the account belongs to the broker role."
      },
      "isEntity(address)": {
        "details": "Return `true` if the account belongs to the entity role."
      },
      "isNotary(address)": {
        "details": "Return `true` if the account belongs to the notary role."
      },
      "isSigner(address,bytes32,bytes)": {
        "details": "Return `true` if the signature of the hash belongs to the specified owner."
      },
      "recover(bytes32,bytes)": {
        "details": "To be removed - testing purposes"
      },
      "removeBroker(address)": {
        "details": "Remove an account from the broker role. Restricted to notaries."
      },
      "removeEntity(address)": {
        "details": "Remove an account from the entity role. Restricted to notaries."
      },
      "removeNotary(address)": {
        "details": "Remove an account from the notary role. Restricted to admins."
      },
      "renounceAdmin()": {
        "details": "Remove oneself from the admin role."
      },
      "renounceBroker()": {
        "details": "Remove oneself from the broker role."
      },
      "renounceEntity()": {
        "details": "Remove oneself from the entity role."
      },
      "renounceNotary()": {
        "details": "Remove oneself from the notary role."
      },
      "renounceRole(bytes32,address)": {
        "details": "Revokes `role` from the calling account. Roles are often managed via {grantRole} and {revokeRole}: this function's purpose is to provide a mechanism for accounts to lose their privileges if they are compromised (such as when a trusted device is misplaced). If the calling account had been granted `role`, emits a {RoleRevoked} event. Requirements: - the caller must be `account`."
      },
      "requestBrokerApproval(string,bytes32,bytes)": {
        "details": "Return `true` if the broker approval request is valid and queued for notary"
      },
      "requestEntityApproval(string,bytes32,bytes,address[])": {
        "details": "Return `true` if the entity approval request is valid and queued for notary"
      },
      "revokeRole(bytes32,address)": {
        "details": "Revokes `role` from `account`. If `account` had been granted `role`, emits a {RoleRevoked} event. Requirements: - the caller must have ``role``'s admin role."
      }
    },
    "title": "YKTS"
  },
  "userdoc": {
    "methods": {},
    "notice": "Implements YKTS with access control"
  }
}